{
  "address": "0xF44d5712826Eca7429ccf7F2fEa4b61f089e3Ea0",
  "abi": [
    {
      "inputs": [
        {
          "internalType": "address",
          "name": "_usdcToken",
          "type": "address"
        },
        {
          "internalType": "address",
          "name": "_resourceWallet",
          "type": "address"
        },
        {
          "internalType": "uint256",
          "name": "_mintPrice",
          "type": "uint256"
        }
      ],
      "stateMutability": "nonpayable",
      "type": "constructor"
    },
    {
      "inputs": [],
      "name": "InvalidShortString",
      "type": "error"
    },
    {
      "inputs": [
        {
          "internalType": "string",
          "name": "str",
          "type": "string"
        }
      ],
      "name": "StringTooLong",
      "type": "error"
    },
    {
      "anonymous": false,
      "inputs": [
        {
          "indexed": true,
          "internalType": "address",
          "name": "owner",
          "type": "address"
        },
        {
          "indexed": true,
          "internalType": "address",
          "name": "approved",
          "type": "address"
        },
        {
          "indexed": true,
          "internalType": "uint256",
          "name": "tokenId",
          "type": "uint256"
        }
      ],
      "name": "Approval",
      "type": "event"
    },
    {
      "anonymous": false,
      "inputs": [
        {
          "indexed": true,
          "internalType": "address",
          "name": "owner",
          "type": "address"
        },
        {
          "indexed": true,
          "internalType": "address",
          "name": "operator",
          "type": "address"
        },
        {
          "indexed": false,
          "internalType": "bool",
          "name": "approved",
          "type": "bool"
        }
      ],
      "name": "ApprovalForAll",
      "type": "event"
    },
    {
      "anonymous": false,
      "inputs": [
        {
          "indexed": false,
          "internalType": "string",
          "name": "newImageUri",
          "type": "string"
        }
      ],
      "name": "DefaultImageUriUpdated",
      "type": "event"
    },
    {
      "anonymous": false,
      "inputs": [
        {
          "indexed": false,
          "internalType": "string",
          "name": "newProvenanceCid",
          "type": "string"
        }
      ],
      "name": "DefaultProvenanceCidUpdated",
      "type": "event"
    },
    {
      "anonymous": false,
      "inputs": [],
      "name": "EIP712DomainChanged",
      "type": "event"
    },
    {
      "anonymous": false,
      "inputs": [
        {
          "indexed": true,
          "internalType": "address",
          "name": "newLicenseSigner",
          "type": "address"
        }
      ],
      "name": "LicenseSignerUpdated",
      "type": "event"
    },
    {
      "anonymous": false,
      "inputs": [
        {
          "indexed": true,
          "internalType": "address",
          "name": "beneficiary",
          "type": "address"
        },
        {
          "indexed": false,
          "internalType": "uint256",
          "name": "validUntil",
          "type": "uint256"
        },
        {
          "indexed": true,
          "internalType": "uint256",
          "name": "tokenId",
          "type": "uint256"
        }
      ],
      "name": "LicenseUpdated",
      "type": "event"
    },
    {
      "anonymous": false,
      "inputs": [
        {
          "indexed": false,
          "internalType": "uint256",
          "name": "newPrice",
          "type": "uint256"
        }
      ],
      "name": "MintPriceUpdated",
      "type": "event"
    },
    {
      "anonymous": false,
      "inputs": [
        {
          "indexed": true,
          "internalType": "address",
          "name": "previousOwner",
          "type": "address"
        },
        {
          "indexed": true,
          "internalType": "address",
          "name": "newOwner",
          "type": "address"
        }
      ],
      "name": "OwnershipTransferred",
      "type": "event"
    },
    {
      "anonymous": false,
      "inputs": [
        {
          "indexed": true,
          "internalType": "address",
          "name": "newWallet",
          "type": "address"
        }
      ],
      "name": "ResourceWalletUpdated",
      "type": "event"
    },
    {
      "anonymous": false,
      "inputs": [
        {
          "indexed": true,
          "internalType": "address",
          "name": "from",
          "type": "address"
        },
        {
          "indexed": true,
          "internalType": "address",
          "name": "to",
          "type": "address"
        },
        {
          "indexed": true,
          "internalType": "uint256",
          "name": "tokenId",
          "type": "uint256"
        }
      ],
      "name": "Transfer",
      "type": "event"
    },
    {
      "inputs": [],
      "name": "LICENSE_TERM",
      "outputs": [
        {
          "internalType": "uint256",
          "name": "",
          "type": "uint256"
        }
      ],
      "stateMutability": "view",
      "type": "function"
    },
    {
      "inputs": [],
      "name": "MAX_SUPPLY",
      "outputs": [
        {
          "internalType": "uint256",
          "name": "",
          "type": "uint256"
        }
      ],
      "stateMutability": "view",
      "type": "function"
    },
    {
      "inputs": [
        {
          "internalType": "address",
          "name": "",
          "type": "address"
        },
        {
          "internalType": "uint256",
          "name": "",
          "type": "uint256"
        }
      ],
      "name": "approve",
      "outputs": [],
      "stateMutability": "pure",
      "type": "function"
    },
    {
      "inputs": [
        {
          "internalType": "address",
          "name": "owner",
          "type": "address"
        }
      ],
      "name": "balanceOf",
      "outputs": [
        {
          "internalType": "uint256",
          "name": "",
          "type": "uint256"
        }
      ],
      "stateMutability": "view",
      "type": "function"
    },
    {
      "inputs": [],
      "name": "currentSupply",
      "outputs": [
        {
          "internalType": "uint256",
          "name": "",
          "type": "uint256"
        }
      ],
      "stateMutability": "view",
      "type": "function"
    },
    {
      "inputs": [],
      "name": "defaultImageUri",
      "outputs": [
        {
          "internalType": "string",
          "name": "",
          "type": "string"
        }
      ],
      "stateMutability": "view",
      "type": "function"
    },
    {
      "inputs": [],
      "name": "defaultProvenanceCid",
      "outputs": [
        {
          "internalType": "string",
          "name": "",
          "type": "string"
        }
      ],
      "stateMutability": "view",
      "type": "function"
    },
    {
      "inputs": [],
      "name": "eip712Domain",
      "outputs": [
        {
          "internalType": "bytes1",
          "name": "fields",
          "type": "bytes1"
        },
        {
          "internalType": "string",
          "name": "name",
          "type": "string"
        },
        {
          "internalType": "string",
          "name": "version",
          "type": "string"
        },
        {
          "internalType": "uint256",
          "name": "chainId",
          "type": "uint256"
        },
        {
          "internalType": "address",
          "name": "verifyingContract",
          "type": "address"
        },
        {
          "internalType": "bytes32",
          "name": "salt",
          "type": "bytes32"
        },
        {
          "internalType": "uint256[]",
          "name": "extensions",
          "type": "uint256[]"
        }
      ],
      "stateMutability": "view",
      "type": "function"
    },
    {
      "inputs": [
        {
          "internalType": "uint256",
          "name": "tokenId",
          "type": "uint256"
        }
      ],
      "name": "getApproved",
      "outputs": [
        {
          "internalType": "address",
          "name": "",
          "type": "address"
        }
      ],
      "stateMutability": "view",
      "type": "function"
    },
    {
      "inputs": [
        {
          "internalType": "address",
          "name": "who",
          "type": "address"
        }
      ],
      "name": "hasLicense",
      "outputs": [
        {
          "internalType": "bool",
          "name": "",
          "type": "bool"
        }
      ],
      "stateMutability": "view",
      "type": "function"
    },
    {
      "inputs": [
        {
          "internalType": "address",
          "name": "owner",
          "type": "address"
        },
        {
          "internalType": "address",
          "name": "operator",
          "type": "address"
        }
      ],
      "name": "isApprovedForAll",
      "outputs": [
        {
          "internalType": "bool",
          "name": "",
          "type": "bool"
        }
      ],
      "stateMutability": "view",
      "type": "function"
    },
    {
      "inputs": [
        {
          "internalType": "address",
          "name": "",
          "type": "address"
        }
      ],
      "name": "licenseExpiry",
      "outputs": [
        {
          "internalType": "uint256",
          "name": "",
          "type": "uint256"
        }
      ],
      "stateMutability": "view",
      "type": "function"
    },
    {
      "inputs": [],
      "name": "licenseSigner",
      "outputs": [
        {
          "internalType": "address",
          "name": "",
          "type": "address"
        }
      ],
      "stateMutability": "view",
      "type": "function"
    },
    {
      "inputs": [
        {
          "internalType": "uint256",
          "name": "",
          "type": "uint256"
        }
      ],
      "name": "metadataByTokenId",
      "outputs": [
        {
          "internalType": "string",
          "name": "name",
          "type": "string"
        },
        {
          "internalType": "string",
          "name": "imageUri",
          "type": "string"
        },
        {
          "internalType": "string",
          "name": "provenanceCid",
          "type": "string"
        }
      ],
      "stateMutability": "view",
      "type": "function"
    },
    {
      "inputs": [
        {
          "internalType": "string",
          "name": "name",
          "type": "string"
        },
        {
          "internalType": "string",
          "name": "imageUri",
          "type": "string"
        },
        {
          "internalType": "string",
          "name": "provenanceCid",
          "type": "string"
        }
      ],
      "name": "mint",
      "outputs": [
        {
          "internalType": "uint256",
          "name": "",
          "type": "uint256"
        }
      ],
      "stateMutability": "nonpayable",
      "type": "function"
    },
    {
      "inputs": [
        {
          "components": [
            {
              "internalType": "address",
              "name": "beneficiary",
              "type": "address"
            },
            {
              "internalType": "uint256",
              "name": "nonce",
              "type": "uint256"
            },
            {
              "internalType": "uint256",
              "name": "validUntil",
              "type": "uint256"
            }
          ],
          "internalType": "struct Brolli.Voucher",
          "name": "v",
          "type": "tuple"
        },
        {
          "internalType": "bytes",
          "name": "sig",
          "type": "bytes"
        },
        {
          "internalType": "string",
          "name": "name",
          "type": "string"
        },
        {
          "internalType": "string",
          "name": "imageUri",
          "type": "string"
        },
        {
          "internalType": "string",
          "name": "provenanceCid",
          "type": "string"
        }
      ],
      "name": "mintOrRenewWithVoucher",
      "outputs": [
        {
          "internalType": "uint256",
          "name": "",
          "type": "uint256"
        }
      ],
      "stateMutability": "nonpayable",
      "type": "function"
    },
    {
      "inputs": [],
      "name": "mintPrice",
      "outputs": [
        {
          "internalType": "uint256",
          "name": "",
          "type": "uint256"
        }
      ],
      "stateMutability": "view",
      "type": "function"
    },
    {
      "inputs": [],
      "name": "name",
      "outputs": [
        {
          "internalType": "string",
          "name": "",
          "type": "string"
        }
      ],
      "stateMutability": "view",
      "type": "function"
    },
    {
      "inputs": [],
      "name": "owner",
      "outputs": [
        {
          "internalType": "address",
          "name": "",
          "type": "address"
        }
      ],
      "stateMutability": "view",
      "type": "function"
    },
    {
      "inputs": [
        {
          "internalType": "uint256",
          "name": "tokenId",
          "type": "uint256"
        }
      ],
      "name": "ownerOf",
      "outputs": [
        {
          "internalType": "address",
          "name": "",
          "type": "address"
        }
      ],
      "stateMutability": "view",
      "type": "function"
    },
    {
      "inputs": [],
      "name": "remainingSupply",
      "outputs": [
        {
          "internalType": "uint256",
          "name": "",
          "type": "uint256"
        }
      ],
      "stateMutability": "view",
      "type": "function"
    },
    {
      "inputs": [],
      "name": "renounceOwnership",
      "outputs": [],
      "stateMutability": "nonpayable",
      "type": "function"
    },
    {
      "inputs": [],
      "name": "resourceWallet",
      "outputs": [
        {
          "internalType": "address",
          "name": "",
          "type": "address"
        }
      ],
      "stateMutability": "view",
      "type": "function"
    },
    {
      "inputs": [
        {
          "internalType": "address",
          "name": "from",
          "type": "address"
        },
        {
          "internalType": "address",
          "name": "to",
          "type": "address"
        },
        {
          "internalType": "uint256",
          "name": "tokenId",
          "type": "uint256"
        }
      ],
      "name": "safeTransferFrom",
      "outputs": [],
      "stateMutability": "nonpayable",
      "type": "function"
    },
    {
      "inputs": [
        {
          "internalType": "address",
          "name": "from",
          "type": "address"
        },
        {
          "internalType": "address",
          "name": "to",
          "type": "address"
        },
        {
          "internalType": "uint256",
          "name": "tokenId",
          "type": "uint256"
        },
        {
          "internalType": "bytes",
          "name": "data",
          "type": "bytes"
        }
      ],
      "name": "safeTransferFrom",
      "outputs": [],
      "stateMutability": "nonpayable",
      "type": "function"
    },
    {
      "inputs": [
        {
          "internalType": "address",
          "name": "",
          "type": "address"
        },
        {
          "internalType": "bool",
          "name": "",
          "type": "bool"
        }
      ],
      "name": "setApprovalForAll",
      "outputs": [],
      "stateMutability": "pure",
      "type": "function"
    },
    {
      "inputs": [
        {
          "internalType": "address",
          "name": "newLicenseSigner",
          "type": "address"
        }
      ],
      "name": "setLicenseSigner",
      "outputs": [],
      "stateMutability": "nonpayable",
      "type": "function"
    },
    {
      "inputs": [
        {
          "internalType": "uint256",
          "name": "_newPrice",
          "type": "uint256"
        }
      ],
      "name": "setMintPrice",
      "outputs": [],
      "stateMutability": "nonpayable",
      "type": "function"
    },
    {
      "inputs": [
        {
          "internalType": "address",
          "name": "_newWallet",
          "type": "address"
        }
      ],
      "name": "setResourceWallet",
      "outputs": [],
      "stateMutability": "nonpayable",
      "type": "function"
    },
    {
      "inputs": [
        {
          "internalType": "address",
          "name": "_newToken",
          "type": "address"
        }
      ],
      "name": "setUsdcToken",
      "outputs": [],
      "stateMutability": "nonpayable",
      "type": "function"
    },
    {
      "inputs": [
        {
          "internalType": "bytes4",
          "name": "interfaceId",
          "type": "bytes4"
        }
      ],
      "name": "supportsInterface",
      "outputs": [
        {
          "internalType": "bool",
          "name": "",
          "type": "bool"
        }
      ],
      "stateMutability": "view",
      "type": "function"
    },
    {
      "inputs": [],
      "name": "symbol",
      "outputs": [
        {
          "internalType": "string",
          "name": "",
          "type": "string"
        }
      ],
      "stateMutability": "view",
      "type": "function"
    },
    {
      "inputs": [
        {
          "internalType": "uint256",
          "name": "index",
          "type": "uint256"
        }
      ],
      "name": "tokenByIndex",
      "outputs": [
        {
          "internalType": "uint256",
          "name": "",
          "type": "uint256"
        }
      ],
      "stateMutability": "view",
      "type": "function"
    },
    {
      "inputs": [
        {
          "internalType": "address",
          "name": "owner",
          "type": "address"
        },
        {
          "internalType": "uint256",
          "name": "index",
          "type": "uint256"
        }
      ],
      "name": "tokenOfOwnerByIndex",
      "outputs": [
        {
          "internalType": "uint256",
          "name": "",
          "type": "uint256"
        }
      ],
      "stateMutability": "view",
      "type": "function"
    },
    {
      "inputs": [
        {
          "internalType": "uint256",
          "name": "tokenId",
          "type": "uint256"
        }
      ],
      "name": "tokenURI",
      "outputs": [
        {
          "internalType": "string",
          "name": "",
          "type": "string"
        }
      ],
      "stateMutability": "view",
      "type": "function"
    },
    {
      "inputs": [],
      "name": "totalSupply",
      "outputs": [
        {
          "internalType": "uint256",
          "name": "",
          "type": "uint256"
        }
      ],
      "stateMutability": "view",
      "type": "function"
    },
    {
      "inputs": [
        {
          "internalType": "address",
          "name": "from",
          "type": "address"
        },
        {
          "internalType": "address",
          "name": "to",
          "type": "address"
        },
        {
          "internalType": "uint256",
          "name": "tokenId",
          "type": "uint256"
        }
      ],
      "name": "transferFrom",
      "outputs": [],
      "stateMutability": "nonpayable",
      "type": "function"
    },
    {
      "inputs": [
        {
          "internalType": "address",
          "name": "newOwner",
          "type": "address"
        }
      ],
      "name": "transferOwnership",
      "outputs": [],
      "stateMutability": "nonpayable",
      "type": "function"
    },
    {
      "inputs": [
        {
          "internalType": "string",
          "name": "newImageUri",
          "type": "string"
        }
      ],
      "name": "updateDefaultImageUri",
      "outputs": [],
      "stateMutability": "nonpayable",
      "type": "function"
    },
    {
      "inputs": [
        {
          "internalType": "string",
          "name": "newProvenanceCid",
          "type": "string"
        }
      ],
      "name": "updateDefaultProvenanceCid",
      "outputs": [],
      "stateMutability": "nonpayable",
      "type": "function"
    },
    {
      "inputs": [],
      "name": "usdcToken",
      "outputs": [
        {
          "internalType": "contract IERC20",
          "name": "",
          "type": "address"
        }
      ],
      "stateMutability": "view",
      "type": "function"
    },
    {
      "inputs": [
        {
          "internalType": "bytes32",
          "name": "",
          "type": "bytes32"
        }
      ],
      "name": "usedVouchers",
      "outputs": [
        {
          "internalType": "bool",
          "name": "",
          "type": "bool"
        }
      ],
      "stateMutability": "view",
      "type": "function"
    }
  ],
  "transactionHash": "0x707096677f7c43fc7f065c91be0d46a863f25cacb2951c8c9ab6e40414c45448",
  "args": [
    "0x833589fCD6eDb6E08f4c7C32D4f71b54bdA02913",
    "0x9A28D4fb2513A5ac6DB6bf64d6a8c200f0213CAd",
    "99000000"
  ],
  "numDeployments": 1,
  "solcInputHash": "3b1aea82a1c5ca24bcb14397c4bb5271",
  "bytecode": "0x610160346200073357601f6200478c38819003918201601f19168301916001600160401b03831184841017620005805780849260609460405283398101031262000733576200004e8162000754565b9060406200005f6020830162000754565b91015191604051620000718162000738565b600681526542726f6c6c6960d01b9081602082015260405191620000958362000738565b60018352603160f81b602084015260405190620000b28262000738565b60068252602082015260405190620000ca8262000738565b600682526542524f4c4c4960d01b60208301528051906001600160401b03821162000580578190620000fe60005462000769565b601f8111620006f2575b50602090601f831160011462000676576000926200066a575b50508160011b916000199060031b1c1916176000555b8051906001600160401b038211620005805781906200015860015462000769565b601f81116200061c575b50602090601f8311600114620005a25760009262000596575b50508160011b916000199060031b1c1916176001555b600a8054336001600160a01b0319821681179092556001600160a01b03167f8be0079c531659141344cd1fd0a4f28419497f9722a3daafe3b4186f6b6457e0600080a36001600b55620001e481620007bf565b61012052620001f38262000960565b6101405260208151910120908160e0526020815191012080610100524660a0526040519060208201927f8b73c3c69bb8fe3d512ecc4cf759cc79239f7b179b0ffacaa9a75d522b39400f8452604083015260608201524660808201523060a082015260a0815260c0810181811060018060401b0382111762000580576040525190206080523060c0526200028960165462000769565b601f811162000531575b5060db60169081556000527f68747470733a2f2f74616e2d65766572796461792d6d6974652d3431392e6d796000805160206200476c8339815191528190557f70696e6174612e636c6f75642f697066732f6261666b726569616c6d653263617fd833147d7dc355ba459fc788f669e58cfaf9dc25ddcd0702e87d69c7b512428a557f336233366e7a713572717164716177336b326c653475766772647874646a33337fd833147d7dc355ba459fc788f669e58cfaf9dc25ddcd0702e87d69c7b512428b556c74326a34736e3434616d69736960981b7fd833147d7dc355ba459fc788f669e58cfaf9dc25ddcd0702e87d69c7b512428c556017546c71793378657869676f64326e7160981b91600391620003ae9062000769565b601f8111620004e2575b5060db60179081556000526000805160206200474c8339815191529081557f70696e6174612e636c6f75642f697066732f6261666b72656964633771626b647fc624b66cc0138b8fabc209247f72d758e1cf3343756d543badbf24212bed8c16557f736669726265747375356f776d35366f65716b687768716c787066676a696f347fc624b66cc0138b8fabc209247f72d758e1cf3343756d543badbf24212bed8c17550155601380546001600160a01b039283166001600160a01b03199182161790915560148054939092169216919091179055601555604051613c19908162000af3823960805181613437015260a051816134f2015260c05181613401015260e05181613486015261010051816134ac01526101205181611289015261014051816112b20152f35b60176000526200052a90601f0160051c6000805160206200474c833981519152017fc624b66cc0138b8fabc209247f72d758e1cf3343756d543badbf24212bed8c19620007a6565b38620003b8565b60166000526200057990601f0160051c6000805160206200476c833981519152017fd833147d7dc355ba459fc788f669e58cfaf9dc25ddcd0702e87d69c7b512428d620007a6565b3862000293565b634e487b7160e01b600052604160045260246000fd5b0151905038806200017b565b600160009081526000805160206200472c8339815191529350601f198516905b818110620006035750908460019594939210620005e9575b505050811b0160015562000191565b015160001960f88460031b161c19169055388080620005da565b92936020600181928786015181550195019301620005c2565b600160005262000658906000805160206200472c833981519152601f850160051c810191602086106200065f575b601f0160051c0190620007a6565b3862000162565b90915081906200064a565b01519050388062000121565b600080805293506000805160206200470c83398151915291905b601f1984168510620006d6576001945083601f19811610620006bc575b505050811b0160005562000137565b015160001960f88460031b161c19169055388080620006ad565b8181015183556020948501946001909301929091019062000690565b600080526200072c906000805160206200470c833981519152601f850160051c810191602086106200065f57601f0160051c0190620007a6565b3862000108565b600080fd5b604081019081106001600160401b038211176200058057604052565b51906001600160a01b03821682036200073357565b90600182811c921680156200079b575b60208310146200078557565b634e487b7160e01b600052602260045260246000fd5b91607f169162000779565b818110620007b2575050565b60008155600101620007a6565b8051602090818110156200085c5750601f825111620007fb5780825192015190808310620007ec57501790565b82600019910360031b1b161790565b90604051809263305a27a960e01b82528060048301528251908160248401526000935b82851062000842575050604492506000838284010152601f80199101168101030190fd5b84810182015186860160440152938101938593506200081e565b919291906001600160401b03821162000580576200087c600c5462000769565b601f811162000933575b5080601f8311600114620008c75750819293600092620008bb575b50508160011b916000199060031b1c191617600c5560ff90565b015190503880620008a1565b90601f19831694600c60005282600020926000905b8782106200091a57505083600195961062000900575b505050811b01600c5560ff90565b015160001960f88460031b161c19169055388080620008f2565b80600185968294968601518155019501930190620008dc565b6200095990600c600052601f83600020910160051c810190601f850160051c01620007a6565b3862000886565b805160209081811015620009ee5750601f8251116200098d5780825192015190808310620007ec57501790565b90604051809263305a27a960e01b82528060048301528251908160248401526000935b828510620009d4575050604492506000838284010152601f80199101168101030190fd5b8481018201518686016044015293810193859350620009b0565b919291906001600160401b038211620005805762000a0e600d5462000769565b601f811162000ac5575b5080601f831160011462000a59575081929360009262000a4d575b50508160011b916000199060031b1c191617600d5560ff90565b01519050388062000a33565b90601f19831694600d60005282600020926000905b87821062000aac57505083600195961062000a92575b505050811b01600d5560ff90565b015160001960f88460031b161c1916905538808062000a84565b8060018596829496860151815501950193019062000a6e565b62000aeb90600d600052601f83600020910160051c810190601f850160051c01620007a6565b3862000a1856fe60806040526004361015610013575b600080fd5b60003560e01c806301ffc9a71461035b57806306fdde0314610352578063081812fc14610349578063095ea7b3146103405780630b1cea921461033757806311eac8551461032e57806318160ddd14610325578063204ed5261461031c57806323b872dd1461031357806323ee40231461030a5780632f745c591461030157806331ed2a1b146102f857806332cb6b0c146102ef57806336dfe1a7146102e65780633f428a49146102dd57806342640acb146102d457806342842e0e146102cb57806342d322b4146102c25780634f6ccce7146102b957806356afb487146102b05780635a481474146102a75780635d886f221461029e5780636352211e146102955780636817c76c1461028c57806370a0823114610283578063715018a61461027a578063771282f61461027157806384b0196e146102685780638da5cb5b1461025f57806395d89b4114610256578063a22cb4651461024d578063a2ada47314610244578063b88d4fde1461023b578063bfa556e414610232578063c87b56dd14610229578063cd9509be14610220578063d645ddf614610217578063da0239a61461020e578063e1a0e2fd14610205578063e985e9c5146101fc578063f2fde38b146101f35763f4a0a528146101eb57600080fd5b61000e611cf1565b5061000e611c23565b5061000e611bba565b5061000e611a6f565b5061000e611a29565b5061000e611895565b5061000e611875565b5061000e6115d7565b5061000e6115a5565b5061000e61153d565b5061000e611495565b5061000e611440565b5061000e611390565b5061000e611366565b5061000e61126d565b5061000e61124e565b5061000e6111ef565b5061000e6111bf565b5061000e6111a0565b5061000e611181565b5061000e6110f2565b5061000e611050565b5061000e611010565b5061000e610f64565b5061000e610e14565b5061000e610d38565b5061000e610cfa565b5061000e610c64565b5061000e610c00565b5061000e610be3565b5061000e610b0e565b5061000e610788565b5061000e61075e565b5061000e610732565b5061000e61065a565b5061000e61063b565b5061000e610611565b5061000e6105e7565b5061000e610581565b5061000e61053f565b5061000e61045b565b5061000e610376565b6001600160e01b031981160361000e57565b503461000e57602036600319011261000e57602060043561039681610364565b63ffffffff60e01b1663780e9d6360e01b81149081156103bc575b506040519015158152f35b6380ac58cd60e01b8114915081156103ee575b81156103dd575b50386103b1565b6301ffc9a760e01b149050386103d6565b635b5e139f60e01b811491506103cf565b60005b8381106104125750506000910152565b8181015183820152602001610402565b9060209161043b815180928185528580860191016103ff565b601f01601f1916010190565b906020610458928181520190610422565b90565b503461000e5760008060031936011261053c576040519080805461047e8161083f565b8085529160019180831690811561051257506001146104b8575b6104b4856104a8818703826109ba565b60405191829182610447565b0390f35b80809450527f290decd9548b62a8d60345a988386fc84ba6bc95484008f6362f93160ef3e5635b8284106104fa5750505081016020016104a8826104b4610498565b805460208587018101919091529093019281016104df565b8695506104b4969350602092506104a894915060ff191682840152151560051b8201019293610498565b80fd5b503461000e57602036600319011261000e57602061055e600435611e7c565b6040516001600160a01b039091168152f35b6001600160a01b0381160361000e57565b503461000e57604036600319011261000e5761059e600435610570565b60405162461bcd60e51b815260206004820152601960248201527f546f6b656e206973206e6f6e2d7472616e7366657261626c65000000000000006044820152606490fd5b0390fd5b503461000e57600036600319011261000e576014546040516001600160a01b039091168152602090f35b503461000e57600036600319011261000e576013546040516001600160a01b039091168152602090f35b503461000e57600036600319011261000e576020600854604051908152f35b503461000e57602036600319011261000e5760043561067881610570565b610680611d3e565b6001600160a01b031680156106c857601480546001600160a01b031916821790557f8ccc87ab62f79b0cd11f68288a52fa96294f06da659ce5cafd5b6e51c86b96a1600080a2005b60405162461bcd60e51b8152602060048201526016602482015275496e76616c69642077616c6c6574206164647265737360501b6044820152606490fd5b606090600319011261000e5760043561071e81610570565b9060243561072b81610570565b9060443590565b503461000e5761075c61074436610706565b916107576107528433611fec565b611eba565b6120be565b005b503461000e57600036600319011261000e576012546040516001600160a01b039091168152602090f35b503461000e57604036600319011261000e576004356107a681610570565b602435906107b381611d96565b8210156107e65760018060a01b031660005260066020526040600020906000526020526020604060002054604051908152f35b60405162461bcd60e51b815260206004820152602b60248201527f455243373231456e756d657261626c653a206f776e657220696e646578206f7560448201526a74206f6620626f756e647360a81b6064820152608490fd5b90600182811c9216801561086f575b602083101461085957565b634e487b7160e01b600052602260045260246000fd5b91607f169161084e565b906000929180549161088a8361083f565b9182825260019384811690816000146108ec57506001146108ac575b50505050565b90919394506000526020928360002092846000945b8386106108d85750505050010190388080806108a6565b8054858701830152940193859082016108c1565b9294505050602093945060ff191683830152151560051b010190388080806108a6565b50634e487b7160e01b600052604160045260246000fd5b602081019081106001600160401b0382111761094157604052565b61094961090f565b604052565b606081019081106001600160401b0382111761094157604052565b604081019081106001600160401b0382111761094157604052565b60a081019081106001600160401b0382111761094157604052565b60c081019081106001600160401b0382111761094157604052565b90601f801991011681019081106001600160401b0382111761094157604052565b60405190600082601654916109ef8361083f565b80835292600190818116908115610a655750600114610a18575b50610a16925003836109ba565b565b601660009081529150600080516020613bc48339815191525b848310610a4a5750610a16935050810160200138610a09565b81935090816020925483858a01015201910190918592610a31565b905060209250610a1694915060ff191682840152151560051b82010138610a09565b6040519060008260175491610a9b8361083f565b80835292600190818116908115610a655750600114610ac15750610a16925003836109ba565b601760009081529150600080516020613ba48339815191525b848310610af35750610a16935050810160200138610a09565b81935090816020925483858a01015201910190918592610ada565b503461000e5760008060031936011261053c576040519080601654610b328161083f565b80855291600191808316908115610bb95750600114610b70575b6104b485610b5c818703826109ba565b604051918291602083526020830190610422565b925060168352600080516020613bc48339815191525b828410610ba1575050508101602001610b5c826104b4610b4c565b80546020858701810191909152909301928101610b86565b8695506104b496935060209250610b5c94915060ff191682840152151560051b8201019293610b4c565b503461000e57600036600319011261000e57602060405160328152f35b503461000e57602036600319011261000e57600435610c1e81610570565b601280546001600160a01b0319166001600160a01b039290921691821790557fcd027fdbf8348aa610b29619fe3a6d65ced6fcad1ba3ac0c5f59f19526ad1d58600080a2005b503461000e5760008060031936011261053c576040519080601754610c888161083f565b80855291600191808316908115610bb95750600114610cb1576104b485610b5c818703826109ba565b925060178352600080516020613ba48339815191525b828410610ce2575050508101602001610b5c826104b4610b4c565b80546020858701810191909152909301928101610cc7565b503461000e57602036600319011261000e57600435610d1881610570565b60018060a01b031660005260106020526020604060002054604051908152f35b503461000e5761075c610d4a36610706565b9060405192610d5884610926565b60008452611f4d565b60405190610a168261094e565b6020906001600160401b038111610d8b575b601f01601f19160190565b610d9361090f565b610d80565b929192610da482610d6e565b91610db260405193846109ba565b82948184528183011161000e578281602093846000960137010152565b9080601f8301121561000e5781602061045893359101610d98565b602060031982011261000e57600435906001600160401b03821161000e5761045891600401610dcf565b503461000e57610e2336610dea565b610e2b611d3e565b80516001600160401b038111610f57575b610e5081610e4b60165461083f565b6126a0565b602080601f8311600114610ebf57509181610eaf927f70adce1f8ecfc987da6c596389f71bcc98da4db960c083819a4266f0dc75bfc894600091610eb4575b508160011b916000199060031b1c19161760165560405191829182610447565b0390a1005b905082015138610e8f565b601660005290601f198316600080516020613bc4833981519152926000905b828210610f3f575050927f70adce1f8ecfc987da6c596389f71bcc98da4db960c083819a4266f0dc75bfc8949260019282610eaf9610610f26575b5050811b016016556104a8565b84015160001960f88460031b161c191690553880610f19565b80600185968294968a01518155019501930190610ede565b610f5f61090f565b610e3c565b503461000e57602036600319011261000e57600435600854811015610fb65760086000527ff3f7a9fe364faab93b216da50a3214154f22a0a2b415b23a84c8169e8b636ee30154604051908152602090f35b60405162461bcd60e51b815260206004820152602c60248201527f455243373231456e756d657261626c653a20676c6f62616c20696e646578206f60448201526b7574206f6620626f756e647360a01b6064820152608490fd5b503461000e57602036600319011261000e5760043561102e81610570565b60018060a01b0316600052601060205260206040600020546040519042108152f35b503461000e57602036600319011261000e57600435600052600f6020526110d760406104b4816000209160026110e5825194611097866110908184610879565b03876109ba565b6110c48451916110b5836110ae8160018501610879565b03846109ba565b6110ae86518096819301610879565b8351968796606088526060880190610422565b908682036020880152610422565b9184830390850152610422565b503461000e57602036600319011261000e5760043561111081610570565b611118611d3e565b6001600160a01b03168015611144576bffffffffffffffffffffffff60a01b6013541617601355600080f35b60405162461bcd60e51b8152602060048201526015602482015274496e76616c696420746f6b656e206164647265737360581b6044820152606490fd5b503461000e57602036600319011261000e57602061055e600435611e59565b503461000e57600036600319011261000e576020601554604051908152f35b503461000e57602036600319011261000e5760206111e76004356111e281610570565b611d96565b604051908152f35b503461000e5760008060031936011261053c5761120a611d3e565b600a80546001600160a01b0319811690915581906001600160a01b03167f8be0079c531659141344cd1fd0a4f28419497f9722a3daafe3b4186f6b6457e08280a380f35b503461000e57600036600319011261000e576020600e54604051908152f35b503461000e5760008060031936011261053c57611318906112ad7f000000000000000000000000000000000000000000000000000000000000000061241a565b6112d67f000000000000000000000000000000000000000000000000000000000000000061250f565b91604051916112e483610926565b818352604051948594600f60f81b865261130a60209360e08589015260e0880190610422565b908682036040880152610422565b904660608601523060808601528260a086015284820360c08601528080855193848152019401925b82811061134f57505050500390f35b835185528695509381019392810192600101611340565b503461000e57600036600319011261000e57600a546040516001600160a01b039091168152602090f35b503461000e5760008060031936011261053c57604051908060018054916113b68361083f565b8086529282811690811561051257506001146113dc576104b4856104a8818703826109ba565b92508083527fb10e2d527612073b26eecdfd717e6a320cf44b4afac2b0732d9fcbe2b7fa0cf65b82841061141e5750505081016020016104a8826104b4610498565b80546020858701810191909152909301928101611403565b8015150361000e57565b503461000e57604036600319011261000e5761145d600435610570565b61059e602435611436565b9181601f8401121561000e578235916001600160401b03831161000e576020838186019501011161000e57565b503461000e57366003190160e0811261000e5760601361000e576001600160401b0360643581811161000e576114cf903690600401611468565b60849291923582811161000e576114ea903690600401611468565b60a49491943584811161000e57611505903690600401611468565b9160c43595861161000e576104b49661152561152d973690600401611468565b969095612d79565b6040519081529081906020820190565b503461000e57608036600319011261000e5760043561155b81610570565b60243561156781610570565b606435916001600160401b03831161000e573660238401121561000e5761159b61075c933690602481600401359101610d98565b9160443591611f4d565b503461000e57602036600319011261000e576004356000526011602052602060ff604060002054166040519015158152f35b503461000e57602036600319011261000e576004356000818152600260205260409020546001600160a01b0316151561160f90613518565b61162381600052600f602052604060002090565b9061162d90611e59565b6001600160a01b0316600090815260106020526040902054906002810191611654906135f4565b604051607b60f81b60208201526e0113730b6b2911d11213937b636349608d1b602182015292839290919061168c603085018261355b565b61088b60f21b81526002017f226465736372697074696f6e223a22666f7220425549444c657273222c0000008152601d01681134b6b0b3b2911d1160b91b81526009016116db9160010161355b565b61088b60f21b81526002016d2261747472696275746573223a5b60901b8152600e017f7b2274726169745f74797065223a2250726f76656e616e636520434944222c228152673b30b63ab2911d1160c11b602082015260280161173e908361355b565b62089f4b60ea1b81526003017f7b2274726169745f74797065223a2256616c696420556e74696c222c2264697381527f706c61795f74797065223a2264617465222c2276616c7565223a0000000000006020820152603a0161179f916135dd565b607d60f81b815260010161174b60f21b81526002016c227265736f7572636573223a7b60981b8152600d016d11383937bb32b730b731b2911d1160911b8152600e016117ea9161355b565b61227d60f01b8152600201607d60f81b81526001010390601f1991828101825261181490826109ba565b61181d906137ae565b6040517f646174613a6170706c69636174696f6e2f6a736f6e3b6261736536342c000000602082015291908290603d8201611857916135dd565b03908101825261186790826109ba565b6040516104b4819282610447565b503461000e57600036600319011261000e5760206040516301e133808152f35b503461000e57606036600319011261000e576001600160401b0360043581811161000e576118c7903690600401610dcf565b9060243581811161000e576118e0903690600401610dcf565b9060443590811161000e576104b49261190061199e923690600401610dcf565b6119086129ea565b61191a61191433611d96565b1561260f565b6119286032600e541061265b565b601554806119fe575b506119406001600e5401600e55565b600e549361194e8533612b6d565b80516119f8575061195d6109db565b905b80516119f2575061196e610a87565b905b611978610d61565b9283526020830152604082015261199983600052600f602052604060002090565b61288e565b6119a7426129b5565b33600081815260106020908152604091829020849055905192835283927f29b07226f164c4218cb5ace4721043e8f1d4111a845d67c66ad4a1d9eee4e65c9190a361152d6001600b55565b90611970565b9061195f565b601354611a2391906001600160a01b03166014546001600160a01b0316903390612a40565b38611931565b503461000e57600036600319011261000e57600e5460328110611a53575060206000604051908152f35b60209060320360328111156111e757611a6a61299e565b6111e7565b503461000e57611a7e36610dea565b611a86611d3e565b80516001600160401b038111611bad575b611aab81611aa660175461083f565b6126ff565b602080601f8311600114611b1557509181610eaf927ff7d9f19836aa303db7f38774e0e47a24fb7a52af11e3bcf07c8499052bce2c0994600091611b0a575b508160011b916000199060031b1c19161760175560405191829182610447565b905082015138611aea565b601760005290601f198316600080516020613ba4833981519152926000905b828210611b95575050927ff7d9f19836aa303db7f38774e0e47a24fb7a52af11e3bcf07c8499052bce2c09949260019282610eaf9610611b7c575b5050811b016017556104a8565b84015160001960f88460031b161c191690553880611b6f565b80600185968294968a01518155019501930190611b34565b611bb561090f565b611a97565b503461000e57604036600319011261000e57602060ff611c17600435611bdf81610570565b60243590611bec82610570565b60018060a01b03166000526005845260406000209060018060a01b0316600052602052604060002090565b54166040519015158152f35b503461000e57602036600319011261000e57600435611c4181610570565b611c49611d3e565b6001600160a01b03908116908115611c9d57600a54826bffffffffffffffffffffffff60a01b821617600a55167f8be0079c531659141344cd1fd0a4f28419497f9722a3daafe3b4186f6b6457e0600080a3005b60405162461bcd60e51b815260206004820152602660248201527f4f776e61626c653a206e6577206f776e657220697320746865207a65726f206160448201526564647265737360d01b6064820152608490fd5b503461000e57602036600319011261000e577f525b762709cc2a983aec5ccdfd807a061f993c91090b5bcd7da92ca254976aaa6020600435611d31611d3e565b80601555604051908152a1005b600a546001600160a01b03163303611d5257565b606460405162461bcd60e51b815260206004820152602060248201527f4f776e61626c653a2063616c6c6572206973206e6f7420746865206f776e65726044820152fd5b6001600160a01b03168015611db657600052600360205260406000205490565b60405162461bcd60e51b815260206004820152602960248201527f4552433732313a2061646472657373207a65726f206973206e6f7420612076616044820152683634b21037bbb732b960b91b6064820152608490fd5b15611e1457565b60405162461bcd60e51b815260206004820152601860248201527f4552433732313a20696e76616c696420746f6b656e20494400000000000000006044820152606490fd5b6000908152600260205260409020546001600160a01b0316610458811515611e0d565b600081815260026020526040902054611e9f906001600160a01b03161515611e0d565b6000908152600460205260409020546001600160a01b031690565b15611ec157565b60405162461bcd60e51b815260206004820152602d60248201527f4552433732313a2063616c6c6572206973206e6f7420746f6b656e206f776e6560448201526c1c881bdc88185c1c1c9bdd9959609a1b6064820152608490fd5b60405190602082018281106001600160401b03821117611f40575b60405260008252565b611f4861090f565b611f37565b91610a169391611f7493611f646107528433611fec565b611f6f8383836120be565b612394565b611fcc565b60809060208152603260208201527f4552433732313a207472616e7366657220746f206e6f6e20455243373231526560408201527131b2b4bb32b91034b6b83632b6b2b73a32b960711b60608201520190565b15611fd357565b60405162461bcd60e51b8152806105e360048201611f79565b6001600160a01b0380611ffe84611e59565b169281831692848414948515612034575b5050831561201e575b50505090565b61202a91929350611e7c565b1614388080612018565b60009081526005602090815260408083206001600160a01b03949094168352929052205460ff169350388061200f565b1561206b57565b60405162461bcd60e51b815260206004820152602560248201527f4552433732313a207472616e736665722066726f6d20696e636f72726563742060448201526437bbb732b960d91b6064820152608490fd5b6120e2906120cb84611e59565b6001600160a01b0382811693909182168414612064565b83169283156121e157612160826120fd87846121ba96613897565b61211f8561211961210d8a611e59565b6001600160a01b031690565b14612064565b612146612136886000526004602052604060002090565b80546001600160a01b0319169055565b6001600160a01b0316600090815260036020526040902090565b80546000190190556001600160a01b03811660009081526003602052604090206001815401905561219b856000526002602052604060002090565b80546001600160a01b0319166001600160a01b03909216919091179055565b7fddf252ad1be2c89b69c2b068fc378daa952ba7f163c4a11628f55a4df523b3ef600080a4565b60405162461bcd60e51b8152602060048201526024808201527f4552433732313a207472616e7366657220746f20746865207a65726f206164646044820152637265737360e01b6064820152608490fd5b9081602091031261000e575161045881610364565b610458939260809260018060a01b031682526000602083015260408201528160608201520190610422565b6001600160a01b03918216815291166020820152604081019190915260806060820181905261045892910190610422565b3d156122ce573d906122b482610d6e565b916122c260405193846109ba565b82523d6000602084013e565b606090565b909190803b1561238c57612305602091600093604051948580948193630a85bd0160e11b998a84523360048501612247565b03926001600160a01b03165af16000918161235c575b5061234e576123286122a3565b805190816123495760405162461bcd60e51b8152806105e360048201611f79565b602001fd5b6001600160e01b0319161490565b61237e91925060203d8111612385575b61237681836109ba565b810190612232565b903861231b565b503d61236c565b505050600190565b92909190823b156123c757612305926020926000604051809681958294630a85bd0160e11b9a8b85523360048601612272565b50505050600190565b6123d981611d96565b156107e65760018060a01b0316600052600660205260406000206000805260205260406000205490565b50634e487b7160e01b600052603260045260246000fd5b60ff81146124545760ff811690601f8211612442576124376125c4565b918252602082015290565b604051632cd44ac360e21b8152600490fd5b50604051600c548160006124678361083f565b808352926001908181169081156124ed575060011461248e575b50610458925003826109ba565b600c600090815291507fdf6966c971051c3d54ec59162606531493a51404a002842f56009d7e5cf4a8c75b8483106124d25750610458935050810160200138612481565b819350908160209254838589010152019101909184926124b9565b90506020925061045894915060ff191682840152151560051b82010138612481565b60ff811461252c5760ff811690601f8211612442576124376125c4565b50604051600d5481600061253f8361083f565b808352926001908181169081156124ed57506001146125655750610458925003826109ba565b600d600090815291507fd7b6990105719101dabeb77144f2a3385c8033acd3af97e9423a695e81ad1eb55b8483106125a95750610458935050810160200138612481565b81935090816020925483858901015201910190918492612590565b604051906125d182610969565b60208083523683820137565b906125e782610d6e565b6125f460405191826109ba565b8281528092612605601f1991610d6e565b0190602036910137565b1561261657565b60405162461bcd60e51b815260206004820152601a60248201527f4164647265737320616c7265616479206861732042726f6c6c690000000000006044820152606490fd5b1561266257565b60405162461bcd60e51b815260206004820152601660248201527513585e1a5b5d5b481cdd5c1c1b1e481c995858da195960521b6044820152606490fd5b601f81116126ac575050565b60009060168252600080516020613bc4833981519152906020601f850160051c830194106126f5575b601f0160051c01915b8281106126ea57505050565b8181556001016126de565b90925082906126d5565b601f811161270b575050565b60009060178252600080516020613ba4833981519152906020601f850160051c83019410612754575b601f0160051c01915b82811061274957505050565b81815560010161273d565b9092508290612734565b90601f811161276c57505050565b600091825260208220906020601f850160051c830194106127a8575b601f0160051c01915b82811061279d57505050565b818155600101612791565b9092508290612788565b91909182516001600160401b038111612881575b6127da816127d4845461083f565b8461275e565b602080601f831160011461281657508192939460009261280b575b50508160011b916000199060031b1c1916179055565b0151905038806127f5565b90601f1983169561282c85600052602060002090565b926000905b88821061286957505083600195969710612850575b505050811b019055565b015160001960f88460031b161c19169055388080612846565b80600185968294968601518155019501930190612831565b61288961090f565b6127c6565b91909182519283516001600160401b038111612991575b6128b9816128b3855461083f565b8561275e565b6020948590601f831160011461291757610a16959683604094600296946129039460009261290c575b50508160011b916000199060031b1c19161786555b820151600186016127b2565b015191016127b2565b0151905038806128e2565b90601f1983169161292d86600052602060002090565b9260005b81811061297a5750846002969461290394610a169a9b9460409860019510612961575b505050811b0186556128f7565b015160001960f88460031b161c19169055388080612954565b929389600181928786015181550195019301612931565b61299961090f565b6128a5565b50634e487b7160e01b600052601160045260246000fd5b906301e1338082018092116129c657565b610a1661299e565b90600282018092116129c657565b90602082018092116129c657565b6002600b54146129fb576002600b55565b60405162461bcd60e51b815260206004820152601f60248201527f5265656e7472616e637947756172643a207265656e7472616e742063616c6c006044820152606490fd5b6000612ad2949381926040519560208701956323b872dd60e01b875260018060a01b03938480921660248a0152166044880152606487015260648652612a8586610984565b169260405194612a9486610969565b602086527f5361666545524332303a206c6f772d6c6576656c2063616c6c206661696c65646020870152519082855af1612acc6122a3565b91612ce8565b80518015908115612ae9575b50610a169150612b0e565b6020915082908101031261000e576020610a16910151612b0881611436565b38612ade565b15612b1557565b60405162461bcd60e51b815260206004820152602a60248201527f5361666545524332303a204552433230206f7065726174696f6e20646964206e6044820152691bdd081cdd58d8d9595960b21b6064820152608490fd5b90604051612b7a81610926565b600081526001600160a01b038316918215612c5857610a169381611f7494612bc0612bba83600052600260205260018060a01b0360406000205416151590565b15612c9c565b612bc982613a14565b612bd382846139dc565b600082815260026020526040902054612bf6906001600160a01b03161515612bba565b6001600160a01b038316600090815260036020526040902060018154019055612c2d8361219b846000526002602052604060002090565b60007fddf252ad1be2c89b69c2b068fc378daa952ba7f163c4a11628f55a4df523b3ef8180a46122d3565b606460405162461bcd60e51b815260206004820152602060248201527f4552433732313a206d696e7420746f20746865207a65726f20616464726573736044820152fd5b15612ca357565b60405162461bcd60e51b815260206004820152601c60248201527f4552433732313a20746f6b656e20616c7265616479206d696e746564000000006044820152606490fd5b91929015612d4a5750815115612cfc575090565b3b15612d055790565b60405162461bcd60e51b815260206004820152601d60248201527f416464726573733a2063616c6c20746f206e6f6e2d636f6e74726163740000006044820152606490fd5b825190915015612d5d5750805190602001fd5b60405162461bcd60e51b81529081906105e39060048301610447565b9692949695919395612d896129ea565b612d91613052565b6001600160a01b0390612da7908216331461305e565b6044359283421115612db8906130aa565b60125482166001600160a01b031692612dd28415156130e8565b612dda613052565b60405160609190911b6bffffffffffffffffffffffff19166020820190815260243560348084018290528352601f19979092909190612e1a6054826109ba565b51902096612e32886000526011602052604060002090565b5460ff1615612e409061312d565b612e48613052565b916040519283916020830195612e9d928760609194939260808201957f17ea7c64f7b7c0c05f6f1682d1c0b8ba2c7a0b722ebb21e84ee14434d9dda95b835260018060a01b0316602083015260408201520152565b039081018252612ead90826109ba565b519020612eb9906133d8565b913690612ec592610d98565b612ece916131bc565b1614612ed990613170565b612eed906000526011602052604060002090565b805460ff19166001179055612f0133611d96565b61303e57612f3d612f8f95612f1a6032600e541061265b565b612f286001600e5401600e55565b600e5497612f368933612b6d565b3691610d98565b9081511561302a575b612f5291923691610d98565b91825115613015575b612f6f90612f67610d61565b943691610d98565b83526020830152604082015261199983600052600f602052604060002090565b336000908152601060205260409020429054111561300c57336000908152601060205260409020612fc090546129b5565b33600081815260106020908152604091829020849055905192835283927f29b07226f164c4218cb5ace4721043e8f1d4111a845d67c66ad4a1d9eee4e65c9190a390610a166001600b55565b612fc0426129b5565b9150612f6f613022610a87565b929050612f5b565b612f5291506130376109db565b9150612f46565b50505050505061304d336123d0565b612f8f565b60043561045881610570565b1561306557565b60405162461bcd60e51b815260206004820152601c60248201527f566f75636865722062656e6566696369617279206d69736d61746368000000006044820152606490fd5b156130b157565b60405162461bcd60e51b815260206004820152600f60248201526e159bdd58da195c88195e1c1a5c9959608a1b6044820152606490fd5b156130ef57565b60405162461bcd60e51b8152602060048201526016602482015275131a58d95b9cd9481cda59db995c881b9bdd081cd95d60521b6044820152606490fd5b1561313457565b60405162461bcd60e51b8152602060048201526014602482015273159bdd58da195c88185b1c9958591e481d5cd95960621b6044820152606490fd5b1561317757565b60405162461bcd60e51b815260206004820152601960248201527f496e76616c696420766f7563686572207369676e6174757265000000000000006044820152606490fd5b610458916131c991613311565b9190916131f1565b600511156131db57565b634e487b7160e01b600052602160045260246000fd5b6131fa816131d1565b806132025750565b61320b816131d1565b600181036132585760405162461bcd60e51b815260206004820152601860248201527f45434453413a20696e76616c6964207369676e617475726500000000000000006044820152606490fd5b613261816131d1565b600281036132ae5760405162461bcd60e51b815260206004820152601f60248201527f45434453413a20696e76616c6964207369676e6174757265206c656e677468006044820152606490fd5b806132ba6003926131d1565b146132c157565b60405162461bcd60e51b815260206004820152602260248201527f45434453413a20696e76616c6964207369676e6174757265202773272076616c604482015261756560f01b6064820152608490fd5b90604181511460001461333f5761333b916020820151906060604084015193015160001a90613349565b9091565b5050600090600290565b9291907f7fffffffffffffffffffffffffffffff5d576e7357a4501ddfe92f46681b20a083116133cc5791608094939160ff602094604051948552168484015260408301526060820152600093849182805260015afa156133bf5781516001600160a01b038116156133b9579190565b50600190565b50604051903d90823e3d90fd5b50505050600090600390565b6042906133e36133fe565b906040519161190160f01b8352600283015260228201522090565b307f00000000000000000000000000000000000000000000000000000000000000006001600160a01b031614806134ef575b15613459577f000000000000000000000000000000000000000000000000000000000000000090565b60405160208101907f8b73c3c69bb8fe3d512ecc4cf759cc79239f7b179b0ffacaa9a75d522b39400f82527f000000000000000000000000000000000000000000000000000000000000000060408201527f000000000000000000000000000000000000000000000000000000000000000060608201524660808201523060a082015260a081526134e98161099f565b51902090565b507f00000000000000000000000000000000000000000000000000000000000000004614613430565b1561351f57565b60405162461bcd60e51b8152602060048201526014602482015273151bdad95b88191bd95cc81b9bdd08195e1a5cdd60621b6044820152606490fd5b60009291815461356a8161083f565b926001918083169081156135c257506001146135865750505050565b90919293945060005260209081600020906000915b8583106135b157505050500190388080806108a6565b80548584015291830191810161359b565b60ff19168452505050811515909102019150388080806108a6565b906135f0602092828151948592016103ff565b0190565b806000917a184f03e93ff9f4daa797ed6e38ed64bf6a1f01000000000000000080821015613729575b506d04ee2d6d415b85acef81000000008083101561371a575b50662386f26fc100008083101561370b575b506305f5e100808310156136fc575b50612710808310156136ed575b5060648210156136dd575b600a809210156136d3575b60019081602161368b8287016125dd565b95860101905b61369d575b5050505090565b600019019083906f181899199a1a9b1b9c1cb0b131b232b360811b8282061a8353049182156136ce57919082613691565b613696565b916001019161367a565b919060646002910491019161366f565b60049193920491019138613664565b60089193920491019138613657565b60109193920491019138613648565b60209193920491019138613636565b60409350810491503861361d565b604051906137448261094e565b604082527f6768696a6b6c6d6e6f707172737475767778797a303132333435363738392b2f6040837f4142434445464748494a4b4c4d4e4f505152535455565758595a61626364656660208201520152565b600281901b91906001600160fe1b038116036129c657565b80511561388e576137bd613737565b6137d96137d46137cd84516129ce565b6003900490565b613796565b916137eb6137e6846129dc565b6125dd565b92835280815182019060208501935b82821061383c5750505060039051068060011461382b5760021461381c575090565b603d60f81b6000199091015290565b50613d3d60f01b6001199091015290565b9091936004906003809401938451600190603f9082828260121c16880101518553828282600c1c16880101518386015382828260061c16880101516002860153168501015190820153019391906137fa565b50610458611f1c565b9091906001600160a01b038082169182158080156139d2575b1561059e57156138e957506138c483613a14565b8316806138d7575050610a169150613a8d565b036138e0575050565b610a16916139dc565b81851683036138f9575b506138c4565b61390281611d96565b60001981019081116139c5575b61395b6000928684526007602052604084205483810361396c575b5083613940886000526007602052604060002090565b556001600160a01b0316600090815260066020526040902090565b9082526020526040812055386138f3565b8685526006602052604085208486526020526139be60408620546139a28460018060a01b03166000526006602052604060002090565b8388526020528060408820556000526007602052604060002090565b553861392a565b6139cd61299e565b61390f565b50828616156138b0565b6040906139e881611d96565b9260009160018060a01b0316825260066020528282208483526020528083832055815260076020522055565b6008548160005260096020528060406000205568010000000000000000811015613a80575b6001810180600855811015613a73575b60086000527ff3f7a9fe364faab93b216da50a3214154f22a0a2b415b23a84c8169e8b636ee30155565b613a7b612403565b613a49565b613a8861090f565b613a39565b600880546000199290838101818111613b96575b613b3d60009384928184526009602052846040852054911015613b89575b868452613b2c7ff3f7a9fe364faab93b216da50a3214154f22a0a2b415b23a84c8169e8b636ee2958681015490831015613b7c575b88865280837ff3f7a9fe364faab93b216da50a3214154f22a0a2b415b23a84c8169e8b636ee301556000526009602052604060002090565b556000526009602052604060002090565b558254938415613b685784019380851015613b5b575b838352015555565b613b63612403565b613b53565b634e487b7160e01b83526031600452602483fd5b613b84612403565b613af4565b613b91612403565b613abf565b613b9e61299e565b613aa156fec624b66cc0138b8fabc209247f72d758e1cf3343756d543badbf24212bed8c15d833147d7dc355ba459fc788f669e58cfaf9dc25ddcd0702e87d69c7b5124289a2646970667358221220474c1ea9fa8126161fc544a474e35a6e3dc334f6cd42bcb0b8ecf87158a6353364736f6c63430008110033290decd9548b62a8d60345a988386fc84ba6bc95484008f6362f93160ef3e563b10e2d527612073b26eecdfd717e6a320cf44b4afac2b0732d9fcbe2b7fa0cf6c624b66cc0138b8fabc209247f72d758e1cf3343756d543badbf24212bed8c15d833147d7dc355ba459fc788f669e58cfaf9dc25ddcd0702e87d69c7b5124289",
  "devdoc": {
    "kind": "dev",
    "methods": {
      "balanceOf(address)": {
        "details": "See {IERC721-balanceOf}."
      },
      "eip712Domain()": {
        "details": "See {EIP-5267}. _Available since v4.9._"
      },
      "getApproved(uint256)": {
        "details": "See {IERC721-getApproved}."
      },
      "isApprovedForAll(address,address)": {
        "details": "See {IERC721-isApprovedForAll}."
      },
      "name()": {
        "details": "See {IERC721Metadata-name}."
      },
      "owner()": {
        "details": "Returns the address of the current owner."
      },
      "ownerOf(uint256)": {
        "details": "See {IERC721-ownerOf}."
      },
      "renounceOwnership()": {
        "details": "Leaves the contract without owner. It will not be possible to call `onlyOwner` functions. Can only be called by the current owner. NOTE: Renouncing ownership will leave the contract without an owner, thereby disabling any functionality that is only available to the owner."
      },
      "safeTransferFrom(address,address,uint256)": {
        "details": "See {IERC721-safeTransferFrom}."
      },
      "safeTransferFrom(address,address,uint256,bytes)": {
        "details": "See {IERC721-safeTransferFrom}."
      },
      "supportsInterface(bytes4)": {
        "details": "See {IERC165-supportsInterface}."
      },
      "symbol()": {
        "details": "See {IERC721Metadata-symbol}."
      },
      "tokenByIndex(uint256)": {
        "details": "See {IERC721Enumerable-tokenByIndex}."
      },
      "tokenOfOwnerByIndex(address,uint256)": {
        "details": "See {IERC721Enumerable-tokenOfOwnerByIndex}."
      },
      "tokenURI(uint256)": {
        "details": "See {IERC721Metadata-tokenURI}."
      },
      "totalSupply()": {
        "details": "See {IERC721Enumerable-totalSupply}."
      },
      "transferFrom(address,address,uint256)": {
        "details": "See {IERC721-transferFrom}."
      },
      "transferOwnership(address)": {
        "details": "Transfers ownership of the contract to a new account (`newOwner`). Can only be called by the current owner."
      }
    },
    "version": 1
  },
  "userdoc": {
    "kind": "user",
    "methods": {},
    "version": 1
  },
  "storageLayout": {
    "storage": [
      {
        "astId": 718,
        "contract": "contracts/Brolli.sol:Brolli",
        "label": "_name",
        "offset": 0,
        "slot": "0",
        "type": "t_string_storage"
      },
      {
        "astId": 720,
        "contract": "contracts/Brolli.sol:Brolli",
        "label": "_symbol",
        "offset": 0,
        "slot": "1",
        "type": "t_string_storage"
      },
      {
        "astId": 724,
        "contract": "contracts/Brolli.sol:Brolli",
        "label": "_owners",
        "offset": 0,
        "slot": "2",
        "type": "t_mapping(t_uint256,t_address)"
      },
      {
        "astId": 728,
        "contract": "contracts/Brolli.sol:Brolli",
        "label": "_balances",
        "offset": 0,
        "slot": "3",
        "type": "t_mapping(t_address,t_uint256)"
      },
      {
        "astId": 732,
        "contract": "contracts/Brolli.sol:Brolli",
        "label": "_tokenApprovals",
        "offset": 0,
        "slot": "4",
        "type": "t_mapping(t_uint256,t_address)"
      },
      {
        "astId": 738,
        "contract": "contracts/Brolli.sol:Brolli",
        "label": "_operatorApprovals",
        "offset": 0,
        "slot": "5",
        "type": "t_mapping(t_address,t_mapping(t_address,t_bool))"
      },
      {
        "astId": 1768,
        "contract": "contracts/Brolli.sol:Brolli",
        "label": "_ownedTokens",
        "offset": 0,
        "slot": "6",
        "type": "t_mapping(t_address,t_mapping(t_uint256,t_uint256))"
      },
      {
        "astId": 1772,
        "contract": "contracts/Brolli.sol:Brolli",
        "label": "_ownedTokensIndex",
        "offset": 0,
        "slot": "7",
        "type": "t_mapping(t_uint256,t_uint256)"
      },
      {
        "astId": 1775,
        "contract": "contracts/Brolli.sol:Brolli",
        "label": "_allTokens",
        "offset": 0,
        "slot": "8",
        "type": "t_array(t_uint256)dyn_storage"
      },
      {
        "astId": 1779,
        "contract": "contracts/Brolli.sol:Brolli",
        "label": "_allTokensIndex",
        "offset": 0,
        "slot": "9",
        "type": "t_mapping(t_uint256,t_uint256)"
      },
      {
        "astId": 7,
        "contract": "contracts/Brolli.sol:Brolli",
        "label": "_owner",
        "offset": 0,
        "slot": "10",
        "type": "t_address"
      },
      {
        "astId": 148,
        "contract": "contracts/Brolli.sol:Brolli",
        "label": "_status",
        "offset": 0,
        "slot": "11",
        "type": "t_uint256"
      },
      {
        "astId": 3553,
        "contract": "contracts/Brolli.sol:Brolli",
        "label": "_nameFallback",
        "offset": 0,
        "slot": "12",
        "type": "t_string_storage"
      },
      {
        "astId": 3555,
        "contract": "contracts/Brolli.sol:Brolli",
        "label": "_versionFallback",
        "offset": 0,
        "slot": "13",
        "type": "t_string_storage"
      },
      {
        "astId": 4877,
        "contract": "contracts/Brolli.sol:Brolli",
        "label": "_tokenIds",
        "offset": 0,
        "slot": "14",
        "type": "t_struct(Counter)2531_storage"
      },
      {
        "astId": 4917,
        "contract": "contracts/Brolli.sol:Brolli",
        "label": "metadataByTokenId",
        "offset": 0,
        "slot": "15",
        "type": "t_mapping(t_uint256,t_struct(Meta)4884_storage)"
      },
      {
        "astId": 4921,
        "contract": "contracts/Brolli.sol:Brolli",
        "label": "licenseExpiry",
        "offset": 0,
        "slot": "16",
        "type": "t_mapping(t_address,t_uint256)"
      },
      {
        "astId": 4925,
        "contract": "contracts/Brolli.sol:Brolli",
        "label": "usedVouchers",
        "offset": 0,
        "slot": "17",
        "type": "t_mapping(t_bytes32,t_bool)"
      },
      {
        "astId": 4933,
        "contract": "contracts/Brolli.sol:Brolli",
        "label": "licenseSigner",
        "offset": 0,
        "slot": "18",
        "type": "t_address"
      },
      {
        "astId": 4936,
        "contract": "contracts/Brolli.sol:Brolli",
        "label": "usdcToken",
        "offset": 0,
        "slot": "19",
        "type": "t_contract(IERC20)280"
      },
      {
        "astId": 4938,
        "contract": "contracts/Brolli.sol:Brolli",
        "label": "resourceWallet",
        "offset": 0,
        "slot": "20",
        "type": "t_address"
      },
      {
        "astId": 4940,
        "contract": "contracts/Brolli.sol:Brolli",
        "label": "mintPrice",
        "offset": 0,
        "slot": "21",
        "type": "t_uint256"
      },
      {
        "astId": 4955,
        "contract": "contracts/Brolli.sol:Brolli",
        "label": "defaultImageUri",
        "offset": 0,
        "slot": "22",
        "type": "t_string_storage"
      },
      {
        "astId": 4958,
        "contract": "contracts/Brolli.sol:Brolli",
        "label": "defaultProvenanceCid",
        "offset": 0,
        "slot": "23",
        "type": "t_string_storage"
      }
    ],
    "types": {
      "t_address": {
        "encoding": "inplace",
        "label": "address",
        "numberOfBytes": "20"
      },
      "t_array(t_uint256)dyn_storage": {
        "base": "t_uint256",
        "encoding": "dynamic_array",
        "label": "uint256[]",
        "numberOfBytes": "32"
      },
      "t_bool": {
        "encoding": "inplace",
        "label": "bool",
        "numberOfBytes": "1"
      },
      "t_bytes32": {
        "encoding": "inplace",
        "label": "bytes32",
        "numberOfBytes": "32"
      },
      "t_contract(IERC20)280": {
        "encoding": "inplace",
        "label": "contract IERC20",
        "numberOfBytes": "20"
      },
      "t_mapping(t_address,t_bool)": {
        "encoding": "mapping",
        "key": "t_address",
        "label": "mapping(address => bool)",
        "numberOfBytes": "32",
        "value": "t_bool"
      },
      "t_mapping(t_address,t_mapping(t_address,t_bool))": {
        "encoding": "mapping",
        "key": "t_address",
        "label": "mapping(address => mapping(address => bool))",
        "numberOfBytes": "32",
        "value": "t_mapping(t_address,t_bool)"
      },
      "t_mapping(t_address,t_mapping(t_uint256,t_uint256))": {
        "encoding": "mapping",
        "key": "t_address",
        "label": "mapping(address => mapping(uint256 => uint256))",
        "numberOfBytes": "32",
        "value": "t_mapping(t_uint256,t_uint256)"
      },
      "t_mapping(t_address,t_uint256)": {
        "encoding": "mapping",
        "key": "t_address",
        "label": "mapping(address => uint256)",
        "numberOfBytes": "32",
        "value": "t_uint256"
      },
      "t_mapping(t_bytes32,t_bool)": {
        "encoding": "mapping",
        "key": "t_bytes32",
        "label": "mapping(bytes32 => bool)",
        "numberOfBytes": "32",
        "value": "t_bool"
      },
      "t_mapping(t_uint256,t_address)": {
        "encoding": "mapping",
        "key": "t_uint256",
        "label": "mapping(uint256 => address)",
        "numberOfBytes": "32",
        "value": "t_address"
      },
      "t_mapping(t_uint256,t_struct(Meta)4884_storage)": {
        "encoding": "mapping",
        "key": "t_uint256",
        "label": "mapping(uint256 => struct Brolli.Meta)",
        "numberOfBytes": "32",
        "value": "t_struct(Meta)4884_storage"
      },
      "t_mapping(t_uint256,t_uint256)": {
        "encoding": "mapping",
        "key": "t_uint256",
        "label": "mapping(uint256 => uint256)",
        "numberOfBytes": "32",
        "value": "t_uint256"
      },
      "t_string_storage": {
        "encoding": "bytes",
        "label": "string",
        "numberOfBytes": "32"
      },
      "t_struct(Counter)2531_storage": {
        "encoding": "inplace",
        "label": "struct Counters.Counter",
        "members": [
          {
            "astId": 2530,
            "contract": "contracts/Brolli.sol:Brolli",
            "label": "_value",
            "offset": 0,
            "slot": "0",
            "type": "t_uint256"
          }
        ],
        "numberOfBytes": "32"
      },
      "t_struct(Meta)4884_storage": {
        "encoding": "inplace",
        "label": "struct Brolli.Meta",
        "members": [
          {
            "astId": 4879,
            "contract": "contracts/Brolli.sol:Brolli",
            "label": "name",
            "offset": 0,
            "slot": "0",
            "type": "t_string_storage"
          },
          {
            "astId": 4881,
            "contract": "contracts/Brolli.sol:Brolli",
            "label": "imageUri",
            "offset": 0,
            "slot": "1",
            "type": "t_string_storage"
          },
          {
            "astId": 4883,
            "contract": "contracts/Brolli.sol:Brolli",
            "label": "provenanceCid",
            "offset": 0,
            "slot": "2",
            "type": "t_string_storage"
          }
        ],
        "numberOfBytes": "96"
      },
      "t_uint256": {
        "encoding": "inplace",
        "label": "uint256",
        "numberOfBytes": "32"
      }
    }
  }
}